:100000000C9464000C948C000C948C000C948C0068
:100010000C948C000C948C000C948C000C94260A8C
:100020000C948C000C948C000C948C000C940403A5
:100030000C948C000C948C000C948C000C948C0010
:100040000C94C2030C948C000C94B5050C94070618
:100050000C948C000C948C000C948C000C948C00F0
:100060000C948C000C948C000000000024002700ED
:100070002A0000000000250028002B0000000000DE
:1000800023002600290004040404040404040202DA
:100090000202020203030303030301020408102007
:1000A0004080010204081020010204081020000012
:1000B0000007000201000003040600000000000029
:1000C000000002008E00760711241FBECFEFD8E09B
:1000D000DEBFCDBF11E0A0E0B1E0EEE2FFE102C083
:1000E00005900D92A232B107D9F712E0A2E2B1E079
:1000F00001C01D92A331B107E1F710E0C8ECD0E0D8
:1001000004C02297FE010E94910FC43CD107C9F799
:100110000E94CD070C94950F0C94000082E291E0B0
:100120000E94C0010895EF92FF920F931F9383E105
:100130000E94AC04AA2797FDA095BA2FBC01CD015F
:100140000E94E50D20E030E040E251E40E94990E6B
:1001500020E030EC4FE754E40E944A0D20E030E00C
:1001600040E050E00E94E20C7B018C018CED91E0BC
:10017000B801A70122E030E00E94DB09C801B70105
:1001800020E030E040E752E40E94990E20E030E0A9
:100190004AE754E40E94990E0E94B20D9B01AC0103
:1001A000CA011F910F91FF90EF90089588E060E4DD
:1001B0007CE028EE33E040E050E00E94820A60EDEF
:1001C00077E080E090E00E94180488E060E47CE042
:1001D00028EE33E040E050E00E94820A089586E075
:1001E0000E94610520E0892B09F421E0822F089507
:1001F0000F931F93CF93DF938B0168177907ACF4AC
:10020000EC0182E291E0BE010E94160260910E01B3
:1002100070910F01882777FD8095982F0E94180410
:100220002197C017D1076CF714C0EC0182E291E06E
:10023000BE010E94160260910E0170910F01882785
:1002400077FD8095982F0E94180421960C171D07A2
:100250006CF7DF91CF911F910F91089582E890E0A4
:100260006AE570E00E94F8008AE590E062E870E0DC
:100270000E94F8000895AF92BF92CF92DF92EF9262
:10028000FF920F931F935B016C0180EA90E062E89C
:1002900070E00E94F80085E061E00E940D0510C04A
:1002A0000E940A047B018C010E942E010E940A0414
:1002B000E61AF70A080B190BAE0CBF1CC01ED11EA4
:1002C0001A141B041C041D045CF382E890E060EA2D
:1002D00070E00E94F8000E94D60085E060E00E9475
:1002E0000D051F910F91FF90EF90DF90CF90BF9081
:1002F000AF900895EF92FF920F931F930E94930087
:100300007B018C010E94EF00882321F0C801B70116
:100310000E943B011F910F91FF90EF9008950F9362
:100320001F9385E061E00E94CE0484E061E00E94BA
:10033000CE0484E061E00E940D0585E060E00E944B
:100340000D0502E211E0C80163E070E00E94FD02C9
:10035000C80160EA70E00E94160288E061E00E9435
:10036000CE0488E060E00E940D058CED91E040E84D
:1003700055E260E070E00E9442061F910F910895DF
:10038000FC01809125018C3090F480838F5F8093F5
:100390002501815090E0FC01EE0FFF1FE80FF91FCF
:1003A000EA5DFE4F88EB9BE09283818308958FEF97
:1003B00080830895FC0120812C30B8F58181992734
:1003C00087FD909548E850E0481B590B440F551F96
:1003D000440F551F6417750784F08281992787FDA4
:1003E000909548E552E0481B590B440F551F440FA8
:1003F000551F641775070CF4AB0142505040CA01F9
:10040000AA2797FDA095BA2F880F991FAA1FBB1F77
:100410004FB7F89430E0F901EE0FFF1FE20FF31F22
:10042000EA5DFE4F928381834FBF0895AF92BF92E2
:10043000CF92DF92EF92FF920F931F93CF93DF93B0
:10044000EC019B0182E0603278070CF048C077FF36
:1004500003C020E030E005C0653B710514F024EBDB
:1004600030E000D000D0B901882777FD8095982F23
:100470002981332727FD3095E8E8AE2EB12CA21A4A
:10048000B30AAA0CBB1CAA0CBB1CCC24B7FCC0949E
:10049000DC2CEA81FF27E7FDF09528E532E02E1BF2
:1004A0003F0B220F331F220F331F442737FD409588
:1004B000542FEDB7FEB7218332834383548320E06A
:1004C00030E040E050E004EBE02EF12C012D112D46
:1004D0000E94980C9B010F900F900F900F90CE01EF
:1004E000B9010E94DA01DF91CF911F910F91FF9026
:1004F000EF90DF90CF90BF90AF900895CF92DF92B2
:10050000EF92FF921F93CF93DF93EC01162F7A01A6
:10051000690188818C3008F064C0862F61E00E94F8
:10052000CE04888190E0FC01EE0FFF1FE80FF91F59
:10053000EA5DFE4F1F738081807C812B808380E287
:1005400092E08E199F0964E070E00E942B0F69838E
:1005500080E699E08C199D0964E070E00E942B0F01
:100560006A83A8818A2F6CE00E941F0F682F70E0B9
:10057000AB01440F551F460F571F440F551F440F23
:10058000551F20E030E0C901840F951FFC01EE0FDC
:10059000FF1FE80FF91FEA5DFE4F808186FD15C041
:1005A0002F5F3F4F2C30310571F724C0109280002F
:1005B00082E0809381001092850010928400B19AAD
:1005C00080916F00826080936F008A2F90E0FC0121
:1005D000EE0FFF1FE80FF91FEA5DFE4F8081806478
:1005E00080838881DF91CF911F91FF90EF90DF9002
:1005F000CF900895672BD1F2E8CF40E252E020E699
:1006000039E00E947E0208951F920F920FB60F925A
:1006100011242F933F934F935F936F937F938F9307
:100620009F93AF93BF93EF93FF9380914A0187FF0E
:1006300005C010928500109284002BC020914A01C1
:10064000332727FD30958091250190E02817390741
:1006500004F580914A01992787FD9095FC01EE0FE2
:10066000FF1FE80FF91FEA5DFE4F808186FF11C072
:1006700080914A01992787FD9095FC01EE0FFF1F9D
:10068000E80FF91FEA5DFE4F80818F7360E00E94E2
:100690000D0580914A018F5F80934A0120914A01A4
:1006A000332727FD30958091250190E028173907E1
:1006B0000CF04EC080914A018C300CF049C0209162
:1006C00084003091850080914A01992787FD90959B
:1006D000FC01EE0FFF1FE80FF91FEA5DFE4F81815D
:1006E0009281280F391F30938900209388008091D0
:1006F0004A01992787FD9095FC01EE0FFF1FE80F37
:10070000F91FEA5DFE4F808186FF2BC080914A0170
:10071000992787FD9095FC01EE0FFF1FE80FF91F49
:10072000EA5DFE4F80818F7361E00E940D0519C064
:1007300080E49CE905C08091840090918500049636
:1007400090938900809388008FEF80934A0109C0BD
:100750008091840090918500049680549C4940F3D8
:10076000EACFFF91EF91BF91AF919F918F917F91D0
:100770006F915F914F913F912F910F900FBE0F900E
:100780001F9018951F920F920FB60F9211242F935E
:100790003F938F939F93AF93BF9380914F0190911D
:1007A0005001A0915101B091520130915301019635
:1007B000A11DB11D232F2D5F2D3720F02D57019640
:1007C000A11DB11D2093530180934F0190935001BF
:1007D000A0935101B093520180914B0190914C0133
:1007E000A0914D01B0914E010196A11DB11D8093C4
:1007F0004B0190934C01A0934D01B0934E01BF91DA
:10080000AF919F918F913F912F910F900FBE0F90BD
:100810001F9018958FB7F89420914F013091500197
:1008200040915101509152018FBFB901CA01089501
:100830009B01AC017FB7F89480914B0190914C01E2
:10084000A0914D01B0914E0166B5A89B05C06F3FC8
:1008500019F00196A11DB11D7FBFBA2FA92F982FA6
:100860008827860F911DA11DB11D62E0880F991F79
:10087000AA1FBB1F6A95D1F7BC012DC0FFB7F89422
:1008800080914B0190914C01A0914D01B0914E018E
:10089000E6B5A89B05C0EF3F19F00196A11DB11D5B
:1008A000FFBFBA2FA92F982F88278E0F911DA11D4A
:1008B000B11DE2E0880F991FAA1FBB1FEA95D1F76F
:1008C000861B970B885E9340C8F221503040404011
:1008D000504068517C4F211531054105510571F695
:1008E0000895789484B5826084BD84B5816084BDA8
:1008F00085B5826085BD85B5816085BDEEE6F0E099
:10090000808181608083E1E8F0E0108280818260F4
:100910008083808181608083E0E8F0E08081816075
:100920008083E1EBF0E0808184608083E0EBF0E0A5
:10093000808181608083EAE7F0E080818460808349
:1009400080818260808380818160808380818068F3
:1009500080831092C1000895982F8E3008F09E5029
:100960009770809110018295880F880F807C892B69
:1009700080937C0080917A00806480937A008091DB
:100980007A0086FDFCCF2091780040917900942F69
:1009900080E030E0282B392BC9010895CF93DF93F5
:1009A000482F50E0CA0186569F4FFC0134914A57A8
:1009B0005F4FFA018491882369F190E0880F991FB5
:1009C000FC01E859FF4FA591B491FC01EE58FF4F8F
:1009D000C591D491662351F42FB7F8948C91932F3D
:1009E000909589238C93888189230BC0623061F4B0
:1009F0002FB7F8948C91932F909589238C938881AD
:100A0000832B88832FBF06C09FB7F8948C91832BCC
:100A10008C939FBFDF91CF910895482F50E0CA017A
:100A200082559F4FFC012491CA0186569F4FFC01BD
:100A300094914A575F4FFA013491332309F440C02F
:100A4000222351F1233071F0243028F42130A1F019
:100A5000223011F514C02630B1F02730C1F0243017
:100A6000D9F404C0809180008F7703C0809180000A
:100A70008F7D8093800010C084B58F7702C084B5CD
:100A80008F7D84BD09C08091B0008F7703C08091B5
:100A9000B0008F7D8093B000E32FF0E0EE0FFF1FDA
:100AA000EE58FF4FA591B4912FB7F894662321F427
:100AB0008C919095892302C08C91892B8C932FBFA8
:100AC0000895682F70E0CB0182559F4FFC0124915F
:100AD000CB0186569F4FFC0144916A577F4FFB0123
:100AE0009491992319F420E030E03CC0222351F185
:100AF000233071F0243028F42130A1F0223011F598
:100B000014C02630B1F02730C1F02430D9F404C02D
:100B1000809180008F7703C0809180008F7D8093CB
:100B2000800010C084B58F7702C084B58F7D84BDEE
:100B300009C08091B0008F7703C08091B0008F7D95
:100B40008093B000892F90E0880F991F84589F4FA1
:100B5000FC01A591B4918C9120E030E0842311F048
:100B600021E030E0C901089508951F920F920FB659
:100B70000F9211242F933F934F938F939F93EF9353
:100B8000FF938091C00082FD1DC04091C60020915E
:100B90009401309195012F5F3F4F2F7330708091FA
:100BA0009601909197012817390771F0E09194010F
:100BB000F0919501EC5AFE4F4083309395012093BC
:100BC000940102C08091C600FF91EF919F918F9197
:100BD0004F913F912F910F900FBE0F901F9018953E
:100BE000E091E801F091E901E05CFF4F8191919182
:100BF00020813181805C9F4F821B930B60E470E009
:100C00000E942B0F892B11F00E94B40508951F92AA
:100C10000F920FB60F9211242F933F938F939F93B0
:100C2000EF93FF932091D8013091D9018091DA019F
:100C30009091DB012817390731F48091C1008F7D35
:100C40008093C10014C0E091DA01F091DB01E85615
:100C5000FE4F20818091DA019091DB0101968F7324
:100C600090709093DB018093DA012093C600FF918E
:100C7000EF919F918F913F912F910F900FBE0F9009
:100C80001F901895AF92BF92DF92EF92FF920F9351
:100C90001F93CF93DF93EC017A018B01DD24403069
:100CA00081EE580780E0680780E0780711F0DD24C6
:100CB000D39491E0A92EB12CEC89FD89DD2069F057
:100CC000C50108A002C0880F991F0A94E2F780832B
:100CD00060E079E08DE390E005C0108260E874E8A0
:100CE0008EE190E0A80197010E943E0F2150304014
:100CF00040405040569547953795279580E12030E4
:100D0000380720F0DD2011F0DD24D6CFE889F989FD
:100D10003083EA89FB89208319A2EE89FF8940810B
:100D200021E030E0C9010C8C02C0880F991F0A94A1
:100D3000E2F7482B4083EE89FF894081C9010D8C81
:100D400002C0880F991F0A94E2F7482B4083EE896E
:100D5000FF894081C9010E8C02C0880F991F0A9437
:100D6000E2F7482B4083EE89FF8980810F8C02C017
:100D7000220F331F0A94E2F7209528232083DF9166
:100D8000CF911F910F91FF90EF90DF90BF90AF90A8
:100D90000895DC011C96ED91FC911D97E05CFF4FDE
:100DA0008191919120813181805C9F4F821B930BB7
:100DB00060E470E00E942B0F0895DC011C96ED9119
:100DC000FC911D97E05CFF4F20813181E054F040A1
:100DD000DF01AE5BBF4F8D919C91119728173907AA
:100DE00019F42FEF3FEF07C08D919C91E80FF91F89
:100DF0008081282F30E0C9010895DC011C96ED9117
:100E0000FC911D97E05CFF4F20813181E054F04060
:100E1000DF01AE5BBF4F8D919C9111972817390769
:100E200019F42FEF3FEF10C08D919C911197E80FAF
:100E3000F91F20818D919C91119701968F7390706D
:100E400011969C938E9330E0C9010895DC01919630
:100E50008C919197882339F05496ED91FC91559798
:100E6000808186FFF9CF91961C920895CF93DF93EE
:100E7000EC01EE85FF85E05CFF4F20813181E0547D
:100E8000F0402F5F3F4F2F733070DF01AE5BBF4FDD
:100E90008D919C91119728173907D1F3E05CFF4F92
:100EA00080819181E054F040E80FF91F6083EE8566
:100EB000FF85E05CFF4F31832083EE89FF8920812D
:100EC00081E090E00F8C02C0880F991F0A94E2F72E
:100ED000282B208381E089A3EC89FD8980818064AF
:100EE000808381E090E0DF91CF9108951092DF013F
:100EF0001092DE0188EE93E0A0E0B0E08093E00184
:100F00009093E101A093E201B093E30186E191E0C7
:100F10009093DD018093DC0184E591E09093E901F9
:100F20008093E80188E991E09093EB018093EA01D6
:100F300085EC90E09093ED018093EC0184EC90E0DF
:100F40009093EF018093EE0180EC90E09093F1019B
:100F50008093F00181EC90E09093F3018093F20193
:100F600082EC90E09093F5018093F40186EC90E0A0
:100F70009093F7018093F60184E08093F80183E079
:100F80008093F90187E08093FA0185E08093FB016B
:100F900081E08093FC0108950895CF93DF930E9430
:100FA00071040E94CC070E948F01C0EFD5E00E941F
:100FB0007A012097E1F30E94F005F9CFCF92DF92FA
:100FC000EF92FF920F931F93CF93DF937C016B01FE
:100FD0008A01C0E0D0E00FC0D6016D916D01D7014C
:100FE000ED91FC910190F081E02DC7010995C80FAA
:100FF000D91F015010400115110571F7CE01DF9185
:10100000CF911F910F91FF90EF90DF90CF900895B7
:10101000EF92FF920F931F938C01DC01ED91FC91F5
:101020000190F081E02D6DE009957C01D801ED91F2
:10103000FC910190F081E02DC8016AE009959C01C6
:101040002E0D3F1DC9011F910F91FF90EF90089544
:10105000CF93DF93EC016115710519F420E030E0C6
:101060000FC0DB010D900020E9F71197A61BB70B0D
:10107000E881F9810280F381E02DAD0109959C01A1
:10108000C901DF91CF9108954F925F927F928F9225
:101090009F92AF92BF92CF92DF92EF92FF920F9307
:1010A0001F93DF93CF93CDB7DEB7A1970FB6F89418
:1010B000DEBF0FBECDBF2C01742ECB01223008F451
:1010C0002AE019A231E2C32ED12CCC0EDD1E822ED5
:1010D0009924AA24BB24672D752FA50194010E9491
:1010E0003E0F79018A01C801B701A50194010E9450
:1010F000000F472D461B0894C108D1084A3014F44C
:10110000405D01C0495CF6014083E114F104010532
:10111000110521F07E2C5F2DC801DDCFC201B60183
:101120000E942808A1960FB6F894DEBF0FBECDBF6F
:10113000CF91DF911F910F91FF90EF90DF90CF90B3
:10114000BF90AF909F908F907F905F904F90089549
:10115000DC012115310541F4ED91FC910190F08104
:10116000E02D642F099508950E9444080895CF92B8
:10117000DF92EF92FF920F931F93CF93DF93EC01D7
:101180006A017B012115310541F4E881F981019063
:10119000F081E02D642F09951FC02A303105D1F46C
:1011A00077FF17C0E881F9810190F081E02D6DE2B1
:1011B00009958C0144275527BA014C195D096E0920
:1011C0007F09CE012AE00E9444089801280F391FA8
:1011D00004C02AE00E9444089C01C901DF91CF911C
:1011E0001F910F91FF90EF90DF90CF9008957F9225
:1011F0008F929F92AF92BF92CF92DF92EF92FF9227
:101200000F931F93CF93DF934C017A018B01722EC2
:10121000CB01BA01A80197010E94FC0E882321F09E
:10122000C40160E071E021C0C0E0D0E05701680176
:10123000E894D7F8C601B5012FEF3FEF4FE75FE71E
:101240000E94FC0E882351F4C601B5012FEF3FEF39
:101250004FE75FE70E94460D181614F0C1E0D0E09A
:10126000219739F0C40164E071E00E942808EC0184
:1012700093C0C801B7012FEF3FEF4FE75FE40E9433
:10128000950E181654F0C801B7012FEF3FEF4FE746
:101290005FEC0E94460D882324F4C40168E071E0ED
:1012A000E4CFC801B70120E030E040E050E00E9408
:1012B000460D87FD03C0C0E0D0E00EC0D401ED9123
:1012C000FC910190F081E02DC4016DE20995EC01E3
:1012D00017FB109517F9109520E030E040E05FE330
:1012E000DD240BC0CA01B90120E030E040E251E446
:1012F0000E944A0D9B01AC01D394D71498F3C80106
:10130000B7010E94E20C5B016C010E94B70D7B01EA
:101310008C01C401B801A7012AE030E00E94A808AE
:10132000C80FD91F772039F0C4016CE071E00E942A
:101330002808C80FD91FC801B7010E94E30D9B01FF
:10134000AC01C601B5010E94E10C24C020E030E0F0
:1013500040E251E40E94990E7B018C010E94B20D83
:101360005B016C01CC24B7FCC094DC2CC401B60139
:10137000A5012AE030E00E94B708C80FD91FC601B6
:10138000B5010E94E50D9B01AC01C801B7010E94A7
:10139000E10C7A947720D1F6CE01DF91CF911F91A5
:1013A0000F91FF90EF90DF90CF90BF90AF909F9004
:1013B0008F907F900895EF92FF920F931F937C017F
:1013C0000E94F7088C01C7010E940808080F191F26
:1013D000C8011F910F91FF90EF900895813041F067
:1013E000813018F08230D1F409C010926E00089557
:1013F00080916F008D7F80936F00089580917000C1
:101400008D7F8093700081E08093B0008091B10067
:10141000887F84608093B1001092B30008951F9379
:10142000182F80911101811711F09FEF06C0E2EC97
:10143000F0E094918FEF80931101892F0E94EE09C3
:10144000812F60E00E940D051F9108951F920F9259
:101450000FB60F9211242F933F934F935F936F9387
:101460007F938F939F93AF93BF93EF93FF9380915D
:101470000C0290910D02A0910E02B0910F02009704
:10148000A105B10551F1E0911002F09111028081A6
:10149000909112028927808380910C0290910D0215
:1014A000A0910E02B0910F02181619061A061B061B
:1014B000C4F480910C0290910D02A0910E02B091A3
:1014C0000F020197A109B10980930C0290930D02BC
:1014D000A0930E02B0930F0204C0809111010E94EC
:1014E0000F0AFF91EF91BF91AF919F918F917F91E3
:1014F0006F915F914F913F912F910F900FBE0F9081
:101500001F9018952F923F925F926F927F928F92C9
:101510009F92AF92BF92CF92DF92EF92FF920F9382
:101520001F93DF93CF9300D000D0CDB7DEB7A82FA5
:101530001B0129833A834B835C83809111018A17B5
:1015400021F4E2ECF0E0549082C08F3F09F0DAC160
:10155000A0931101E2ECF0E054902FEF521609F441
:10156000D1C181E0581639F192E0591609F449C009
:10157000552009F06CC014BC15BC84B5826084BDD4
:1015800085B5816085BD2A2F30E0F901EA57FF4F0C
:10159000E491F0E0EE0FFF1FEE58FF4F859194911C
:1015A000909303028093020226563F4FF9018491E3
:1015B000809304024EC010928000109281008091AE
:1015C0008100886080938100809181008160809398
:1015D00081002A2F30E0F901EA57FF4FE491F0E053
:1015E000EE0FFF1FEE58FF4F8591949190930A02E2
:1015F0008093090226563F4FF901849180930B0294
:1016000028C01092B0001092B1008091B0008260AA
:101610008093B0008091B10081608093B1002A2F47
:1016200030E0F901EA57FF4FE491F0E0EE0FFF1FC1
:10163000EE58FF4F85919491909311028093100280
:1016400026563F4FF90184918093120202C057FC45
:1016500059C18A2F61E00E94CE04552021F0F2E0AA
:101660005F1609F0BEC031018824992460E072E160
:101670008AE790E0A40193010E94600F59016A017A
:10168000860175010894E108F108010911092FEF9D
:10169000E216F1040105110509F008F499C060E4AF
:1016A00072E48FE090E0A40193010E94600F790141
:1016B0008A010894E108F1080109110982E058162D
:1016C000C1F49FEFE916F1040105110509F008F4D2
:1016D00084C060E970ED83E090E0A40193010E9472
:1016E000600F79018A010894E108F10801091109E4
:1016F00083E0AFEFEA16F1040105110509F008F4E3
:1017000068C068E478EE81E090E0A40193010E9453
:10171000600F79018A010894E108F10801091109B3
:10172000552011F483E01DC0B2E05B1611F084E097
:1017300018C0EFEFEE16F1040105110509F008F4E9
:10174000DFC064E274EF80E090E0A40193010E94A6
:10175000600F79018A010894E108F1080109110973
:1017600085E0FFEFEF16F1040105110591F188F115
:1017700062E17AE780E090E0A40193010E94600FAB
:1017800079018A010894E108F1080109110955203D
:1017900011F086E001C084E02FEFE216F1040105AC
:1017A0001105B9F0B0F0C601B50120E034E040E029
:1017B00050E00E94600F79018A010894E108F10865
:1017C00001091109552011F087E008C085E003C028
:1017D00081E0552019F485BD3AC082E08093B100C4
:1017E00036C05101CC24DD2460E072E18AE790E04C
:1017F000A60195010E94600F79018A010894E10811
:10180000F1080109110980E0E81680E0F80681E09E
:10181000080780E0180710F491E010C068E478EE43
:1018200081E090E0A60195010E94600F79018A0194
:101830000894E108F1080109110993E0A1E05A16A2
:1018400031F480918100887F982B90938100898169
:101850009A81AB81BC810097A105B10529F48FEF76
:101860009FEFAFEFBFEF13C0220C331CB10180E03C
:1018700090E029813A814B815C810E94000F28EE23
:1018800033E040E050E00E943E0FC901DA01E1E0A0
:101890005E16A1F0F2E05F1619F1552099F5E7BC4C
:1018A0008093FE019093FF01A0930002B093010288
:1018B00080916E00826080936E0024C0F092890057
:1018C000E09288008093050290930602A09307029D
:1018D000B093080280916F00826080936F0012C005
:1018E000E092B30080930C0290930D02A0930E023D
:1018F000B0930F028091700082608093700002C0EC
:1019000084E06CCF0F900F900F900F90CF91DF91EC
:101910001F910F91FF90EF90DF90CF90BF90AF900D
:101920009F908F907F906F905F903F902F90089541
:101930002F923F924F925F926F927F928F929F92DF
:10194000AF92BF92CF92DF92EF92FF920F931F93CD
:10195000DF93CF93CDB7DEB73B014C0119012A01CC
:101960006D897E898F89988D6A197B098C099D09FB
:10197000621A730A840A950AA40193010E94000F57
:10198000E218F30804091509A80197010E94600FE5
:101990002A0D3B1D4C1D5D1DB901CA01CF91DF9180
:1019A0001F910F91FF90EF90DF90CF90BF90AF907D
:1019B0009F908F907F906F905F904F903F902F906F
:1019C00008955058BB27AA270ED075C166D130F0B4
:1019D0006BD120F031F49F3F11F41EF45BC10EF483
:1019E000E095E7FB51C1E92F77D180F3BA17620781
:1019F00073078407950718F071F49EF58FC10EF4F4
:101A0000E0950B2EBA2FA02D0B01B90190010C010E
:101A1000CA01A0011124FF27591B99F0593F50F426
:101A2000503E68F11A16F040A22F232F342F44277E
:101A3000585FF3CF469537952795A795F040539576
:101A4000C9F77EF41F16BA0B620B730B840BBAF046
:101A50009150A1F0FF0FBB1F661F771F881FC2F7B1
:101A60000EC0BA0F621F731F841F48F487957795C5
:101A70006795B795F7959E3F08F0B3CF9395880F7C
:101A800008F09927EE0F979587950895D9D008F417
:101A900081E008950CD00FC107D140F0FED030F0A6
:101AA00021F45F3F19F0F0C0511139C1F3C014D1D6
:101AB00098F39923C9F35523B1F3951B550BBB2715
:101AC000AA2762177307840738F09F5F5F4F220FC2
:101AD000331F441FAA1FA9F333D00E2E3AF0E0E8BB
:101AE00030D091505040E695001CCAF729D0FE2F07
:101AF00027D0660F771F881FBB1F26173707480799
:101B0000AB07B0E809F0BB0B802DBF01FF2793584E
:101B10005F4F2AF09E3F510568F0B6C000C15F3F9D
:101B2000ECF3983EDCF3869577956795B795F79536
:101B30009F5FC9F7880F911D9695879597F908952E
:101B4000E1E0660F771F881FBB1F621773078407CA
:101B5000BA0720F0621B730B840BBA0BEE1F88F7D9
:101B6000E095089504D06894B111D9C00895BCD00F
:101B700088F09F5790F0B92F9927B751A0F0D1F076
:101B8000660F771F881F991F1AF0BA95C9F712C000
:101B9000B13081F0C3D0B1E00895C0C0672F782F75
:101BA0008827B85F39F0B93FCCF38695779567956C
:101BB000B395D9F73EF490958095709561957F4FD8
:101BC0008F4F9F4F0895E89409C097FB3EF490957E
:101BD0008095709561957F4F8F4F9F4F9923A9F006
:101BE000F92F96E9BB279395F69587957795679595
:101BF000B795F111F8CFFAF4BB0F11F460FF1BC0D9
:101C00006F5F7F4F8F4F9F4F16C0882311F096E96B
:101C100011C0772321F09EE8872F762F05C0662319
:101C200071F096E8862F70E060E02AF09A95660FD2
:101C3000771F881FDAF7880F9695879597F908958B
:101C4000990F0008550FAA0BE0E8FEEF16161706CD
:101C5000E807F907C0F012161306E407F50798F035
:101C6000621B730B840B950B39F40A2661F0232B4E
:101C7000242B252B21F408950A2609F4A140A695CA
:101C80008FEF811D811D089597F99F6780E870E0AF
:101C900060E008959FEF80EC089500240A941616E2
:101CA000170618060906089500240A94121613064A
:101CB000140605060895092E0394000C11F48823D8
:101CC00052F0BB0F40F4BF2B11F460FF04C06F5FF4
:101CD0007F4F8F4F9F4F089557FD9058440F551FCA
:101CE00059F05F3F71F04795880F97FB991F61F09E
:101CF0009F3F79F087950895121613061406551F15
:101D0000F2CF4695F1DF08C0161617061806991F80
:101D1000F1CF86957105610508940895E894BB2775
:101D200066277727CB0197F908958ADF08F48FEFAC
:101D300008950BD0C0CFB1DF28F0B6DF18F095239F
:101D400009F0A2CFA7CF1124EACFC6DFA0F3959F59
:101D5000D1F3950F50E0551F629FF001729FBB2792
:101D6000F00DB11D639FAA27F00DB11DAA1F649F3E
:101D70006627B00DA11D661F829F2227B00DA11DF1
:101D8000621F739FB00DA11D621F839FA00D611D77
:101D9000221F749F3327A00D611D231F849F600D98
:101DA000211D822F762F6A2F11249F5750408AF0D1
:101DB000E1F088234AF0EE0FFF1FBB1F661F771F5D
:101DC000881F91505040A9F79E3F510570F05CCF9D
:101DD000A6CF5F3FECF3983EDCF386957795679549
:101DE000B795F795E7959F5FC1F7FE2B880F911D7B
:101DF0009695879597F9089523DF880B990B089599
:101E0000629FD001739FF001829FE00DF11D649FDE
:101E1000E00DF11D929FF00D839FF00D749FF00D6A
:101E2000659FF00D9927729FB00DE11DF91F639F0B
:101E3000B00DE11DF91FBD01CF0111240895991BBB
:101E400079E004C0991F961708F0961B881F7A95B1
:101E5000C9F78095089597FB092E07260AD077FDCC
:101E600004D049D006D000201AF4709561957F4FB8
:101E70000895F6F7909581959F4F0895A1E21A2E47
:101E8000AA1BBB1BFD010DC0AA1FBB1FEE1FFF1F1E
:101E9000A217B307E407F50720F0A21BB30BE40B6E
:101EA000F50B661F771F881F991F1A9469F76095B5
:101EB0007095809590959B01AC01BD01CF0108956F
:101EC00097FB092E05260ED057FD04D0D7DF0AD088
:101ED000001C38F450954095309521953F4F4F4F59
:101EE0005F4F0895F6F790958095709561957F4FB7
:101EF0008F4F9F4F0895AA1BBB1B51E107C0AA1F1C
:101F0000BB1FA617B70710F0A61BB70B881F991F9A
:101F10005A95A9F780959095BC01CD010895EE0FD3
:0E1F2000FF1F0590F491E02D0994F894FFCF77
:101F2E006E616E00696E66006F7666002E0032007E
:101F3E0001FF000000003607DE07C906FD06DD06BC
:021F4E00260764
:00000001FF
